:100000000C9462000C948A000C948A000C948A0070
:100010000C948A000C948A000C948A000C948A0038
:100020000C948A000C948A000C948A000C942E057F
:100030000C948A000C948A000C948A000C948A0018
:100040000C94B3020C948A000C948A000C948A00DD
:100050000C948A000C948A000C948A000C948A00F8
:100060000C948A000C948A000000000024002700F1
:100070002A0000000000250028002B0000000000DE
:1000800023002600290004040404040404040202DA
:100090000202020203030303030301020408102007
:1000A0004080010204081020010204081020000012
:1000B0000007000201000003040600000000000029
:1000C00000009E0111241FBECFEFD8E0DEBFCDBFE0
:1000D00011E0A0E0B1E0EAE8FEE002C005900D9278
:1000E000A231B107D9F711E0A2E1B1E001C01D9240
:1000F000A736B107E1F710E0C4ECD0E004C02297C6
:10010000FE010E943F07C23CD107C9F70E94E303EA
:100110000C9443070C940000CF93DF93BC01823012
:10012000910510F462E070E0A0916501B091660164
:10013000ED01E0E0F0E040E050E021C088819981ED
:100140008617970769F48A819B81309719F093830A
:10015000828304C09093660180936501FE0134C0E0
:100160006817790738F44115510519F08417950778
:1001700008F4AC01FE018A819B819C01E901209772
:10018000E9F641155105A9F1CA01861B970B0497A1
:1001900008F4BA01E0E0F0E02AC08D919C9111973B
:1001A00084179507F9F46417750781F412968D91F9
:1001B0009C911397309719F09383828304C0909396
:1001C000660180936501FD0132964CC0CA01861B11
:1001D000970BFD01E80FF91F6193719302978D93BF
:1001E0009C9340C0FD01828193819C01D9011097AD
:1001F000A1F68091630190916401892B41F4809173
:100200000E0190910F0190936401809363014091DE
:100210001001509111014115510541F44DB75EB7E0
:1002200080910C0190910D01481B590B20916301A5
:1002300030916401CA01821B930B8617970780F0E7
:10024000AB014E5F5F4F8417950750F0420F531F6D
:100250005093640140936301F9016193719302C06B
:10026000E0E0F0E0CF01DF91CF910895CF93DF93ED
:10027000009709F450C0EC0122971B821A82A091CA
:100280006501B0916601109709F140E050E0AC17AC
:10029000BD0708F1BB83AA83FE0121913191E20FD2
:1002A000F31FAE17BF0779F48D919C911197280F1A
:1002B000391F2E5F3F4F3983288312968D919C9171
:1002C00013979B838A834115510571F4D09366017E
:1002D000C093650120C012968D919C911397AD013A
:1002E000009711F0DC01D3CFFA01D383C2832191AF
:1002F0003191E20FF31FCE17DF0769F488819981EE
:10030000280F391F2E5F3F4FFA01318320838A81E6
:100310009B8193838283DF91CF910895FB01DC0160
:100320008D91019080190110D9F3990B0895FB016B
:10033000DC0101900D920020E1F7089582E191E047
:100340000E94EA0388E090E09093160180931501E3
:100350008FEB9FEF90931F0180931E0182E890E046
:10036000909321018093200183E291E00E94EA03AF
:1003700084E090E0909327018093260182E390E04F
:100380009093300180932F018AE090E090933201A6
:10039000809331010895CF92DF92EF92FF920F93F5
:1003A0001F93DF93CF9300D000D000D0CDB7DEB73E
:1003B0008C016B017E010894E11CF11CC70160E017
:1003C00071E00E94BB03C601B7010E948E03F801D1
:1003D0008783108689819A810E9436011C821B8244
:1003E0001E821D82F8012781308584859585289F8E
:1003F000B001299F700D389F700D11248685978557
:10040000680F791FC8010E94400426960FB6F89421
:10041000DEBF0FBECDBFCF91DF911F910F91FF9037
:10042000EF90DF90CF900895CF92DF92EF92FF92FE
:100430000F931F93DF93CF93CDB7DEB72C970FB6F3
:10044000F894DEBF0FBECDBF10922D0110922C018B
:1004500010922B0110922A0110922E0100E010E060
:100460006E010894C11CD11C87E0E82EF12CEC0E23
:10047000FD1EC60160E071E00E94BB0383E291E0D3
:10048000B6010E94CB0189819A810E9436011C82AB
:100490001B821E821D8268EE73E080E090E00E9465
:1004A000FB02C70165E071E00E94BB0383E291E0BB
:1004B000B7010E94CB018F8198850E9436011A8670
:1004C00019861C861B8668EE73E080E090E00E942F
:1004D000FB020F5F1F4F0430110559F620912A01CE
:1004E00030912B018091330190E028173907E9F012
:1004F000109233012115310519F081E08093330109
:1005000080912F0190913001289FB001299F700D9B
:10051000389F700D11248091310190913201680F44
:10052000791F83E291E00E9440042C960FB6F89464
:10053000DEBF0FBECDBFCF91DF911F910F91FF9016
:10054000EF90DF90CF90089510922B0110922A0126
:1005500010922E01609126017091270183E291E0B3
:100560000E94270508951F920F920FB60F92112433
:100570002F933F938F939F93AF93BF9380913801B5
:1005800090913901A0913A01B0913B0130913C0129
:100590000196A11DB11D232F2D5F2D3720F02D5762
:1005A0000196A11DB11D20933C01809338019093C9
:1005B0003901A0933A01B0933B01809134019091AD
:1005C0003501A0913601B09137010196A11DB11DF1
:1005D0008093340190933501A0933601B093370195
:1005E000BF91AF919F918F913F912F910F900FBE2F
:1005F0000F901F9018959B01AC017FB7F8948091E4
:10060000340190913501A0913601B091370166B562
:10061000A89B05C06F3F19F00196A11DB11D7FBFBA
:10062000BA2FA92F982F8827860F911DA11DB11DC4
:1006300062E0880F991FAA1FBB1F6A95D1F7BC0102
:100640002DC0FFB7F8948091340190913501A091AD
:100650003601B0913701E6B5A89B05C0EF3F19F010
:100660000196A11DB11DFFBFBA2FA92F982F882772
:100670008E0F911DA11DB11DE2E0880F991FAA1FC9
:10068000BB1FEA95D1F7861B970B885E9340C8F293
:10069000215030404040504068517C4F2115310579
:1006A0004105510571F60895789484B5826084BD42
:1006B00084B5816084BD85B5826085BD85B5816066
:1006C00085BDEEE6F0E0808181608083E1E8F0E0C6
:1006D000808182608083808181608083E0E8F0E0B7
:1006E000808181608083E1EBF0E0808184608083A1
:1006F000E0EBF0E0808181608083EAE7F0E08081D8
:100700008460808380818260808380818160808337
:100710008081806880831092C1000895DC01FB0114
:1007200014962D913C91159784819581281739074E
:1007300011F080E00895608171818D919C910E94FB
:100740008E019C0180E0232B09F481E00895CF9372
:10075000DF93EC01CB017B836A8301960E948C00BE
:1007600099838883009721F41B821A821D821C8240
:10077000DF91CF9108950F931F93CF93DF938C0157
:10078000EB016115710511F4CBE0D1E0FE010190A0
:100790000020E9F73197EC1BFD0BD8011596FC936F
:1007A000EE931497C801BF010E94A703F80180814E
:1007B0009181009719F0BE010E949701DF91CF91BE
:1007C0001F910F9108950E9454030E94A4020E9459
:1007D0001402FDCFFC0180913D018C3090F48083A8
:1007E0008F5F80933D01815090E0FC01EE0FFF1F71
:1007F000E80FF91FE25CFE4F88EB9BE09283818358
:1008000008958FEF80830895FC0120812C30B8F586
:100810008181992787FD909548E850E0481B590B46
:10082000440F551F440F551F6417750784F08281CC
:10083000992787FD909548E552E0481B590B440FD6
:10084000551F440F551F641775070CF4AB01425038
:100850005040CA01AA2797FDA095BA2F880F991F6B
:10086000AA1FBB1F4FB7F89430E0F901EE0FFF1F2E
:10087000E20FF31FE25CFE4F928381834FBF089526
:10088000AF92BF92CF92DF92EF92FF920F931F939E
:10089000CF93DF93EC019B0182E0603278070CF08C
:1008A00048C077FF03C020E030E005C0653B71051C
:1008B00014F024EB30E000D000D0B901882777FD98
:1008C0008095982F2981332727FD3095E8E8AE2EB3
:1008D000B12CA21AB30AAA0CBB1CAA0CBB1CCC24B8
:1008E000B7FCC094DC2CEA81FF27E7FDF09528E5F2
:1008F00032E02E1B3F0B220F331F220F331F4427E2
:1009000037FD4095542FEDB7FEB7218332834383E3
:10091000548320E030E040E050E004EBE02EF12C86
:10092000012D112D0E9465069B010F900F900F90D5
:100930000F90CE01B9010E940404DF91CF911F9165
:100940000F91FF90EF90DF90CF90BF90AF90089500
:10095000CF92DF92EF92FF921F93CF93DF93EC0140
:10096000162F7A01690188818C3008F064C0862FC7
:1009700061E00E94EB05888190E0FC01EE0FFF1F13
:10098000E80FF91FE25CFE4F1F738081807C812B92
:10099000808380E292E08E199F0964E070E00E94FB
:1009A000D906698380E699E08C199D0964E070E0BE
:1009B0000E94D9066A83A8818A2F6CE00E94CD0626
:1009C000682F70E0AB01440F551F460F571F440FAF
:1009D000551F440F551F20E030E0C901840F951FBB
:1009E000FC01EE0FFF1FE80FF91FE25CFE4F808154
:1009F00086FD15C02F5F3F4F2C30310571F724C0A5
:100A00001092800082E08093810010928500109205
:100A10008400B19A80916F00826080936F008A2F6A
:100A200090E0FC01EE0FFF1FE80FF91FE25CFE4FA4
:100A30008081806480838881DF91CF911F91FF90B6
:100A4000EF90DF90CF900895672BD1F2E8CF40E28E
:100A500052E020E639E00E94A80408951F920F9208
:100A60000FB60F9211242F933F934F935F936F9381
:100A70007F938F939F93AF93BF93EF93FF93809157
:100A8000620187FF05C010928500109284002BC080
:100A900020916201332727FD309580913D0190E040
:100AA0002817390704F580916201992787FD9095F1
:100AB000FC01EE0FFF1FE80FF91FE25CFE4F808183
:100AC00086FF11C080916201992787FD9095FC01F6
:100AD000EE0FFF1FE80FF91FE25CFE4F80818F735E
:100AE00060E00E941106809162018F5F8093620135
:100AF00020916201332727FD309580913D0190E0E0
:100B0000281739070CF04EC0809162018C300CF030
:100B100049C020918400309185008091620199271D
:100B200087FD9095FC01EE0FFF1FE80FF91FE25CB7
:100B3000FE4F81819281280F391F309389002093C5
:100B4000880080916201992787FD9095FC01EE0F46
:100B5000FF1FE80FF91FE25CFE4F808186FF2AC06D
:100B600080916201992787FD9095FC01EE0FFF1F90
:100B7000E80FF91FE25CFE4F80818F7361E00E94F5
:100B8000110618C080E49CE905C080918400909112
:100B90008500049690938900809388008FEF80935E
:100BA000620108C0809184009091850084549C4922
:100BB00048F3EBCFFF91EF91BF91AF919F918F9150
:100BC0007F916F915F914F913F912F910F900FBE49
:100BD0000F901F901895482F50E0CA0186569F4FDE
:100BE000FC0124914A575F4FFA0184918823C1F098
:100BF000E82FF0E0EE0FFF1FE859FF4FA591B491E9
:100C0000662341F49FB7F8948C91209582238C93AE
:100C10009FBF08959FB7F8948C91822B8C939FBFB0
:100C20000895482F50E0CA0182559F4FFC0124913E
:100C3000CA0186569F4FFC0134914A575F4FFA0113
:100C40009491992309F440C0222331F1233021F4F7
:100C5000809180008F7705C0243031F4809180002E
:100C60008F7D8093800018C0213019F484B58F7770
:100C700004C0223021F484B58F7D84BD0DC02630A0
:100C800021F48091B0008F7705C0273029F480913E
:100C9000B0008F7D8093B000E92FF0E0EE0FFF1FD2
:100CA000EE58FF4FA591B491662341F49FB7F89495
:100CB0008C91309583238C939FBF08959FB7F894B0
:100CC0008C91832B8C939FBF08952F923F924F92CC
:100CD0005F926F927F928F929F92AF92BF92CF92CC
:100CE000DF92EF92FF920F931F93DF93CF93CDB7D5
:100CF000DEB73B014C0119012A016D897E898F897C
:100D0000988D6A197B098C099D09621A730A840AF5
:100D1000950AA40193010E94AE06E218F3080409A3
:100D20001509A80197010E94EC062A0D3B1D4C1DD8
:100D30005D1DB901CA01CF91DF911F910F91FF9005
:100D4000EF90DF90CF90BF90AF909F908F907F906B
:100D50006F905F904F903F902F900895629FD001C9
:100D6000739FF001829FE00DF11D649FE00DF11D66
:100D7000929FF00D839FF00D749FF00D659FF00D15
:100D80009927729FB00DE11DF91F639FB00DE11D02
:100D9000F91FBD01CF0111240895991B79E004C00A
:100DA000991F961708F0961B881F7A95C9F78095AA
:100DB000089597FB092E07260AD077FD04D027D087
:100DC00006D000201AF4709561957F4F0895F6F7CC
:100DD000909581959F4F089597FB092E05260ED07B
:100DE00057FD04D028D00AD0001C38F45095409507
:100DF000309521953F4F4F4F5F4F0895F6F79095EF
:100E00008095709561957F4F8F4F9F4F0895AA1BD6
:100E1000BB1B51E107C0AA1FBB1FA617B70710F0E5
:100E2000A61BB70B881F991F5A95A9F78095909517
:100E3000BC01CD010895A1E21A2EAA1BBB1BFD0126
:100E40000DC0AA1FBB1FEE1FFF1FA217B307E407A9
:100E5000F50720F0A21BB30BE40BF50B661F771F01
:100E6000881F991F1A9469F76095709580959095E1
:100E70009B01AC01BD01CF010895EE0FFF1F05904E
:0A0E8000F491E02D0994F894FFCFDF
:100E8A004F50454E00434C4F534500002000670128
:020E9A00000056
:00000001FF
