:100000000C9462000C948A000C948A000C948A0070
:100010000C948A000C948A000C948A000C948A0038
:100020000C948A000C948A000C948A000C948A0028
:100030000C948A000C948A000C948A000C948A0018
:100040000C948C000C948A000C9432020C948A005C
:100050000C948A000C948A000C948A000C948A00F8
:100060000C948A000C948A000000000024002700F1
:100070002A0000000000250028002B0000000000DE
:1000800023002600290004040404040404040202DA
:100090000202020203030303030301020408102007
:1000A0004080010204081020010204081020000012
:1000B0000007000201000003040600000000000029
:1000C00000004D0411241FBECFEFD8E0DEBFCDBF2E
:1000D00011E0A0E0B1E0E6E0FBE002C005900D9287
:1000E000AA31B107D9F711E0AAE1B1E001C01D9230
:1000F000AA3BB107E1F710E0C4ECD0E004C02297BE
:10010000FE010E947D05C23CD107C9F70E94B204DE
:100110000C9481050C9400001F920F920FB60F9261
:1001200011242F933F938F939F93AF93BF9380910D
:100130001E0190911F01A0912001B09121013091E9
:1001400022010196A11DB11D232F2D5F2D3720F017
:100150002D570196A11DB11D2093220180931E01F0
:1001600090931F01A0932001B093210180911A0167
:1001700090911B01A0911C01B0911D010196A11D40
:10018000B11D80931A0190931B01A0931C01B093A1
:100190001D01BF91AF919F918F913F912F910F9032
:1001A0000FBE0F901F9018958FB7F89420911E01E5
:1001B00030911F0140912001509121018FBFB90161
:1001C000CA0108959FB7F89420911A0130911B013C
:1001D00040911C0150911D0186B5A89B06C08F3F20
:1001E00021F02F5F3F4F4F4F5F4F9FBF542F432F43
:1001F000322F2227280F311D411D511D82E0220F71
:10020000331F441F551F8A95D1F7B901CA010895BC
:10021000EF92FF920F931F937B018C018FB7F8949D
:1002200040911E0150911F016091200170912101A8
:100230008FBF2FB7F89480911E0190911F01A0915C
:100240002001B09121012FBF841B950BA60BB70B8A
:10025000E816F9060A071B0760F71F910F91FF9038
:10026000EF900895019739F0880F991F880F991F13
:1002700002970197F1F70895789484B5826084BD60
:1002800084B5816084BD85B5826085BD85B581609A
:1002900085BDEEE6F0E0808181608083E1E8F0E0FA
:1002A000808182608083808181608083E0E8F0E0EB
:1002B000808181608083E1EBF0E0808184608083D5
:1002C000E0EBF0E0808181608083EAE7F0E080810C
:1002D000846080838081826080838081816080836C
:1002E0008081806880831092C1000895282F30E0BB
:1002F000C90186569F4FFC0194912A573F4FF9013F
:100300008491882391F0E82FF0E0EE0FFF1FE85969
:10031000FF4FA591B491662329F48C919095892380
:100320008C9308958C91892B8C930895482F50E0DD
:10033000CA0182559F4FFC012491CA0186569F4FE6
:10034000FC0194914A575F4FFA0134913323D1F164
:10035000222331F1233021F4809180008F7705C072
:10036000243031F4809180008F7D8093800018C00C
:10037000213019F484B58F7704C0223021F484B57C
:100380008F7D84BD0DC0263021F48091B0008F7721
:1003900005C0273029F48091B0008F7D8093B00094
:1003A000E32FF0E0EE0FFF1FEE58FF4FA591B49141
:1003B000662329F48C91909589238C9308958C91D0
:1003C000892B8C930895682F70E0CB0182559F4F45
:1003D000FC012491CB0186569F4FFC0144916A5742
:1003E0007F4FFB019491992319F420E030E038C04D
:1003F000222331F1233021F4809180008F7705C0D2
:10040000243031F4809180008F7D8093800018C06B
:10041000213019F484B58F7704C0223021F484B5DB
:100420008F7D84BD0DC0263021F48091B0008F7780
:1004300005C0273029F48091B0008F7D8093B000F3
:10044000892F90E0880F991F84589F4FFC01A59138
:10045000B4918C9120E030E0842311F021E030E071
:10046000C90108951F920F920FB60F9211242F9376
:100470003F934F935F936F937F938F939F93AF932C
:10048000BF93EF93FF934091C600E091A301F091D9
:10049000A401CF01019660E870E00E9417059C015D
:1004A0008091A5019091A6012817390739F0ED5DDB
:1004B000FE4F40833093A4012093A301FF91EF915D
:1004C000BF91AF919F918F917F916F915F914F916C
:1004D0003F912F910F900FBE0F901F9018958F9204
:1004E000AF92CF92DF92EF92FF920F931F93DF9321
:1004F000CF93CDB7DEB7FC0181E191E0918380839A
:1005000073836283558344833783268311870087EF
:10051000F386E286D586C486A68687868D85808BFF
:100520008E85818B8F85828BCF91DF911F910F916B
:10053000FF90EF90DF90CF90AF908F9008958F92C3
:10054000AF92CF92DF92EF92FF920F931F93DF93C0
:10055000CF93CDB7DEB7FC0181E191E09183808339
:10056000738362835583448337832683118700878F
:10057000F386E286D586C486A68687868D85808B9F
:100580008E85818B8F85828BCF91DF911F910F910B
:10059000FF90EF90DF90CF90AF908F9008955F9293
:1005A0006F927F928F929F92AF92BF92CF92DF9283
:1005B000EF92FF920F931F93CF93DF93EC013A01D9
:1005C0004B01413482E458078FE0680780E07807E8
:1005D0000CF07FC060E874E88EE190E0A401930124
:1005E0000E944C052150304040405040CA01B901A2
:1005F00022E030E040E050E00E944C0559016A01E1
:10060000A6019501209530954095509594E0220FD4
:10061000331F441F551F9A95D1F760E074E284EFB1
:1006200090E00E944C05CA01B9012FEF30E040E094
:1006300050E00E94F804A40193010E944C05C901F6
:1006400081509F4F181619061CF4522E5A9403C05D
:1006500055245394521A60E079E08DE390E0A401B0
:1006600093010E944C052150304040405040CA0147
:10067000B90122E030E040E050E00E944C052095B6
:1006800030954095509583E0220F331F441F551F2E
:100690008A95D1F760E074E284EF90E00E944C0507
:1006A000CA01B9012FEF30E040E050E00E94F804A9
:1006B000A40193010E944C05C90181509F4F181657
:1006C00019061CF4822F815002C081E0821B85151F
:1006D00000F5E885F98581E090E00A8802C0880F7E
:1006E000991F0A94E2F7808360E079E08DE390E05F
:1006F000A40193010E944C052150304040405040DD
:10070000CA01B90122E030E040E050E00E944C050F
:1007100004C0E885F98510829501EC81FD81308364
:10072000EE81FF812083EA85FB85208141E050E056
:10073000CA010E8402C0880F991F0A94E2F7282B81
:100740002083EA85FB852081CA010F8402C0880FBF
:10075000991F0A94E2F7282B2083EA85FB85808184
:10076000088802C0440F551F0A94E2F7842B808347
:10077000DF91CF911F910F91FF90EF90DF90CF907D
:10078000BF90AF909F908F907F906F905F900895F3
:10079000FC01A285B3854C9121E030E0C9010684BB
:1007A00002C0880F991F0A94E2F7809584238C93E6
:1007B000A285B3854C91C901078402C0880F991F97
:1007C0000A94E2F7809584238C93A285B3858C915B
:1007D000008802C0220F331F0A94E2F720952823D5
:1007E0002C930895DC011296ED91FC911397E0583B
:1007F000FF4F8191919180589F4F20813181821BC1
:10080000930B60E870E00E9417050895CF93DF9383
:10081000DC011296ED91FC911397EF01CE57DF4F5B
:1008200048815981E058FF4F80819181E058F04024
:100830008417950719F42FEF3FEF0CC0E40FF51F55
:100840002081CA01019660E870E00E941705998333
:10085000888330E0C901DF91CF910895DC011296C1
:10086000ED91FC911397EE57FF4F80819181929308
:1008700082930895FC01A085B18521898C9190E037
:10088000022E02C0959587950A94E2F780FFF6CF75
:100890000484F585E02D6083089581E191E09093D3
:1008A000A8018093A70183E291E09093AA0180932D
:1008B000A90185EC90E09093AC018093AB0184ECAE
:1008C00090E09093AE018093AD0180EC90E0909326
:1008D000B0018093AF0181EC90E09093B2018093DE
:1008E000B10186EC90E09093B4018093B30184E071
:1008F0008093B50183E08093B60187E08093B701D0
:1009000085E08093B80181E08093B90108958091DA
:10091000170161E00E94960168EE73E080E090E0CC
:100920000E9408018091170160E00E94960168EE24
:1009300073E080E090E00E94080187EA91E060E0C7
:1009400071E00E94F00408958091170161E00E9417
:10095000760187EA91E040E855E260E070E00E94AD
:10096000CF0208950E943C010E94A4040E948704C3
:10097000FDCF0F931F93CF93DF938C01EB0109C041
:100980002196D801ED91FC910190F081E02DC801F4
:10099000099568816623A1F7DF91CF911F910F918F
:1009A0000895EF92FF920F931F93CF93DF938C01E3
:1009B0007B01EA010CC0D7016D917D01D801ED9159
:1009C000FC910190F081E02DC801099521972097B5
:1009D00091F7DF91CF911F910F91FF90EF900895C4
:1009E000DC01ED91FC910280F381E02D09950895E1
:1009F000629FD001739FF001829FE00DF11D649F03
:100A0000E00DF11D929FF00D839FF00D749FF00D8E
:100A1000659FF00D9927729FB00DE11DF91F639F2F
:100A2000B00DE11DF91FBD01CF011124089597FB01
:100A3000092E07260AD077FD04D049D006D0002021
:100A40001AF4709561957F4F0895F6F7909581950A
:100A50009F4F0895A1E21A2EAA1BBB1BFD010DC0DA
:100A6000AA1FBB1FEE1FFF1FA217B307E407F5075E
:100A700020F0A21BB30BE40BF50B661F771F881F3A
:100A8000991F1A9469F760957095809590959B01D0
:100A9000AC01BD01CF01089597FB092E05260ED0AC
:100AA00057FD04D0D7DF0AD0001C38F4509540958C
:100AB000309521953F4F4F4F5F4F0895F6F7909532
:100AC0008095709561957F4F8F4F9F4F0895AA1B1A
:100AD000BB1B51E107C0AA1FBB1FA617B70710F029
:100AE000A61BB70B881F991F5A95A9F7809590955B
:100AF000BC01CD010895EE0FFF1F0590F491E02D8C
:060B00000994F894FFCFF8
:100B060048656C6C6F2C20776F726C640000000077
:0A0B1600003A04B904D1040D0000F8
:00000001FF
